{"abi":[{"type":"constructor","inputs":[{"name":"_polVault","type":"address","internalType":"address"}],"stateMutability":"nonpayable"},{"type":"function","name":"INITIAL_SHARE_PRICE","inputs":[],"outputs":[{"name":"","type":"uint256","internalType":"uint256"}],"stateMutability":"view"},{"type":"function","name":"SHARE_PRICE_DIVIDER","inputs":[],"outputs":[{"name":"","type":"uint256","internalType":"uint256"}],"stateMutability":"view"},{"type":"function","name":"SHARE_PRICE_MULTIPLIER","inputs":[],"outputs":[{"name":"","type":"uint256","internalType":"uint256"}],"stateMutability":"view"},{"type":"function","name":"buyShares","inputs":[{"name":"subject","type":"address","internalType":"address"},{"name":"amount","type":"uint256","internalType":"uint256"}],"outputs":[],"stateMutability":"payable"},{"type":"function","name":"getBuyPrice","inputs":[{"name":"subject","type":"address","internalType":"address"},{"name":"amount","type":"uint256","internalType":"uint256"}],"outputs":[{"name":"","type":"uint256","internalType":"uint256"},{"name":"","type":"uint256","internalType":"uint256"}],"stateMutability":"view"},{"type":"function","name":"getSellPrice","inputs":[{"name":"subject","type":"address","internalType":"address"},{"name":"amount","type":"uint256","internalType":"uint256"}],"outputs":[{"name":"","type":"uint256","internalType":"uint256"},{"name":"","type":"uint256","internalType":"uint256"}],"stateMutability":"view"},{"type":"function","name":"getSharePrice","inputs":[{"name":"subject","type":"address","internalType":"address"}],"outputs":[{"name":"","type":"uint256","internalType":"uint256"}],"stateMutability":"view"},{"type":"function","name":"getSharesBalance","inputs":[{"name":"user","type":"address","internalType":"address"},{"name":"subject","type":"address","internalType":"address"}],"outputs":[{"name":"","type":"uint256","internalType":"uint256"}],"stateMutability":"view"},{"type":"function","name":"getSharesSupply","inputs":[{"name":"subject","type":"address","internalType":"address"}],"outputs":[{"name":"","type":"uint256","internalType":"uint256"}],"stateMutability":"view"},{"type":"function","name":"polVault","inputs":[],"outputs":[{"name":"","type":"address","internalType":"contract IBerachainRewardsVault"}],"stateMutability":"view"},{"type":"function","name":"sellShares","inputs":[{"name":"subject","type":"address","internalType":"address"},{"name":"amount","type":"uint256","internalType":"uint256"}],"outputs":[],"stateMutability":"nonpayable"},{"type":"function","name":"sharePrice","inputs":[{"name":"","type":"address","internalType":"address"}],"outputs":[{"name":"","type":"uint256","internalType":"uint256"}],"stateMutability":"view"},{"type":"function","name":"sharesBalance","inputs":[{"name":"","type":"address","internalType":"address"},{"name":"","type":"address","internalType":"address"}],"outputs":[{"name":"","type":"uint256","internalType":"uint256"}],"stateMutability":"view"},{"type":"function","name":"sharesSupply","inputs":[{"name":"","type":"address","internalType":"address"}],"outputs":[{"name":"","type":"uint256","internalType":"uint256"}],"stateMutability":"view"},{"type":"function","name":"stakingToken","inputs":[],"outputs":[{"name":"","type":"address","internalType":"contract PoLStakingToken"}],"stateMutability":"view"},{"type":"event","name":"SharesBought","inputs":[{"name":"buyer","type":"address","indexed":true,"internalType":"address"},{"name":"subject","type":"address","indexed":true,"internalType":"address"},{"name":"amount","type":"uint256","indexed":false,"internalType":"uint256"},{"name":"price","type":"uint256","indexed":false,"internalType":"uint256"}],"anonymous":false},{"type":"event","name":"SharesSold","inputs":[{"name":"seller","type":"address","indexed":true,"internalType":"address"},{"name":"subject","type":"address","indexed":true,"internalType":"address"},{"name":"amount","type":"uint256","indexed":false,"internalType":"uint256"},{"name":"price","type":"uint256","indexed":false,"internalType":"uint256"}],"anonymous":false}],"bytecode":{"object":"0x60c060405234801561001057600080fd5b50604051611a5d380380611a5d83398101604081905261002f91610096565b6001600160a01b038116608052604051309061004a90610089565b6001600160a01b039091168152602001604051809103906000f080158015610076573d6000803e3d6000fd5b506001600160a01b031660a052506100c6565b610bfe80610e5f83390190565b6000602082840312156100a857600080fd5b81516001600160a01b03811681146100bf57600080fd5b9392505050565b60805160a051610d4a610115600039600081816101cd0152818161059a015281816106420152610a9701526000818161030e01528181610613015281816106ce0152610a190152610d4a6000f3fe6080604052600436106100e85760003560e01c80639ae717811161008a578063b9c7840b11610059578063b9c7840b146102c6578063d36d42c9146102fc578063e7ab124714610330578063f9931be01461034c57600080fd5b80639ae71781146102235780639b9b942114610243578063a7b411ed14610270578063b51d0534146102a657600080fd5b80634635256e116100c65780634635256e146101715780636945b123146101a657806372f702f3146101bb5780638b0d69771461020757600080fd5b8063020235ff146100ed5780631ef6f4ed146101355780632325bff914610155575b600080fd5b3480156100f957600080fd5b50610122610108366004610bfe565b600060208181529281526040808220909352908152205481565b6040519081526020015b60405180910390f35b34801561014157600080fd5b50610122610150366004610bfe565b610379565b34801561016157600080fd5b50610122670f43fc2c04ee000081565b34801561017d57600080fd5b5061019161018c366004610c31565b6103a4565b6040805192835260208301919091520161012c565b6101b96101b4366004610c31565b610446565b005b3480156101c757600080fd5b506101ef7f000000000000000000000000000000000000000000000000000000000000000081565b6040516001600160a01b03909116815260200161012c565b34801561021357600080fd5b50610122670c7d713b49da000081565b34801561022f57600080fd5b5061019161023e366004610c31565b610827565b34801561024f57600080fd5b5061012261025e366004610c5b565b60016020526000908152604090205481565b34801561027c57600080fd5b5061012261028b366004610c5b565b6001600160a01b031660009081526002602052604090205490565b3480156102b257600080fd5b506101b96102c1366004610c31565b6108fb565b3480156102d257600080fd5b506101226102e1366004610c5b565b6001600160a01b031660009081526001602052604090205490565b34801561030857600080fd5b506101ef7f000000000000000000000000000000000000000000000000000000000000000081565b34801561033c57600080fd5b5061012267016345785d8a000081565b34801561035857600080fd5b50610122610367366004610c5b565b60026020526000908152604090205481565b6001600160a01b03808316600090815260208181526040808320938516835292905220545b92915050565b6001600160a01b038216600090815260026020526040812054819081908181156103e6576001600160a01b0387166000908152600160205260409020546103f0565b67016345785d8a00005b905060005b86811015610438576104078285610c93565b9350670de0b6b3a7640000610424670f43fc2c04ee000084610ca6565b61042e9190610cbd565b91506001016103f5565b509196919550909350505050565b6000811161049b5760405162461bcd60e51b815260206004820152601960248201527f4d75737420627579206174206c6561737420312073686172650000000000000060448201526064015b60405180910390fd5b6000806104a884846103a4565b91509150813410156104f35760405162461bcd60e51b8152602060048201526014602482015273125b9cdd59999a58da595b9d081c185e5b595b9d60621b6044820152606401610492565b336000908152602081815260408083206001600160a01b038816845290915281208054859290610524908490610c93565b90915550506001600160a01b03841660009081526002602052604081208054859290610551908490610c93565b90915550506001600160a01b038416600090815260016020526040812082905561057b8285610ca6565b6040516340c10f1960e01b8152306004820152602481018290529091507f00000000000000000000000000000000000000000000000000000000000000006001600160a01b0316906340c10f1990604401600060405180830381600087803b1580156105e657600080fd5b505af11580156105fa573d6000803e3d6000fd5b505060405163095ea7b360e01b81526001600160a01b037f000000000000000000000000000000000000000000000000000000000000000081166004830152602482018590527f000000000000000000000000000000000000000000000000000000000000000016925063095ea7b391506044016020604051808303816000875af115801561068d573d6000803e3d6000fd5b505050506040513d601f19601f820116820180604052508101906106b19190610cdf565b50604051633c323a1b60e01b8152336004820152602481018590527f00000000000000000000000000000000000000000000000000000000000000006001600160a01b031690633c323a1b90604401600060405180830381600087803b15801561071a57600080fd5b505af115801561072e573d6000803e3d6000fd5b505050506001600160a01b0385166000818152600160209081526040918290205482518881529182015233917fe6ab7996e18c0e124ba5cdf386c4b51f6f7c2c53a773c7c0c9d5fc3aaa9a552a910160405180910390a3823411156108205760003361079a8534610d01565b604051600081818185875af1925050503d80600081146107d6576040519150601f19603f3d011682016040523d82523d6000602084013e6107db565b606091505b505090508061081e5760405162461bcd60e51b815260206004820152600f60248201526e151c985b9cd9995c8819985a5b1959608a1b6044820152606401610492565b505b5050505050565b6001600160a01b03821660009081526002602052604081205481908311156108915760405162461bcd60e51b815260206004820152601b60248201527f4e6f7420656e6f7567682073686172657320696e20737570706c7900000000006044820152606401610492565b6001600160a01b038416600090815260016020526040812054815b858110156108ef576108be8284610c93565b9250670de0b6b3a76400006108db670c7d713b49da000084610ca6565b6108e59190610cbd565b91506001016108ac565b50909590945092505050565b336000908152602081815260408083206001600160a01b03861684529091529020548111156109605760405162461bcd60e51b81526020600482015260116024820152704e6f7420656e6f7567682073686172657360781b6044820152606401610492565b60008061096d8484610827565b336000908152602081815260408083206001600160a01b038a1684529091528120805493955091935085926109a3908490610d01565b90915550506001600160a01b038416600090815260026020526040812080548592906109d0908490610d01565b90915550506001600160a01b03841660009081526001602052604081208290556109fa8285610ca6565b604051635281244f60e01b8152336004820152602481018690529091507f00000000000000000000000000000000000000000000000000000000000000006001600160a01b031690635281244f90604401600060405180830381600087803b158015610a6557600080fd5b505af1158015610a79573d6000803e3d6000fd5b5050604051632770a7eb60e21b8152306004820152602481018490527f00000000000000000000000000000000000000000000000000000000000000006001600160a01b03169250639dc29fac9150604401600060405180830381600087803b158015610ae557600080fd5b505af1158015610af9573d6000803e3d6000fd5b50506040516000925033915085908381818185875af1925050503d8060008114610b3f576040519150601f19603f3d011682016040523d82523d6000602084013e610b44565b606091505b5050905080610b875760405162461bcd60e51b815260206004820152600f60248201526e151c985b9cd9995c8819985a5b1959608a1b6044820152606401610492565b6001600160a01b0386166000818152600160209081526040918290205482518981529182015233917f2337403031e4afe46802c69e84a928bfb1d575c9353dffbde39fc2ac31154e4a910160405180910390a3505050505050565b80356001600160a01b0381168114610bf957600080fd5b919050565b60008060408385031215610c1157600080fd5b610c1a83610be2565b9150610c2860208401610be2565b90509250929050565b60008060408385031215610c4457600080fd5b610c4d83610be2565b946020939093013593505050565b600060208284031215610c6d57600080fd5b610c7682610be2565b9392505050565b634e487b7160e01b600052601160045260246000fd5b8082018082111561039e5761039e610c7d565b808202811582820484141761039e5761039e610c7d565b600082610cda57634e487b7160e01b600052601260045260246000fd5b500490565b600060208284031215610cf157600080fd5b81518015158114610c7657600080fd5b8181038181111561039e5761039e610c7d56fea2646970667358221220cd4e90f1c3a017369ce25af667fe8d52808b6ee2f16941db39d62cb034273f6464736f6c634300081a0033608060405234801561001057600080fd5b50604051610bfe380380610bfe83398101604081905261002f91610127565b80604051806040016040528060118152602001702837a61029ba30b5b4b733902a37b5b2b760791b81525060405180604001604052806005815260200164141bd314d560da1b815250816003908161008791906101f6565b50600461009482826101f6565b5050506001600160a01b0381166100c557604051631e4fbdf760e01b81526000600482015260240160405180910390fd5b6100ce816100d5565b50506102b4565b600580546001600160a01b038381166001600160a01b0319831681179093556040519116919082907f8be0079c531659141344cd1fd0a4f28419497f9722a3daafe3b4186f6b6457e090600090a35050565b60006020828403121561013957600080fd5b81516001600160a01b038116811461015057600080fd5b9392505050565b634e487b7160e01b600052604160045260246000fd5b600181811c9082168061018157607f821691505b6020821081036101a157634e487b7160e01b600052602260045260246000fd5b50919050565b601f8211156101f157806000526020600020601f840160051c810160208510156101ce5750805b601f840160051c820191505b818110156101ee57600081556001016101da565b50505b505050565b81516001600160401b0381111561020f5761020f610157565b6102238161021d845461016d565b846101a7565b6020601f821160018114610257576000831561023f5750848201515b600019600385901b1c1916600184901b1784556101ee565b600084815260208120601f198516915b828110156102875787850151825560209485019460019092019101610267565b50848210156102a55786840151600019600387901b60f8161c191681555b50505050600190811b01905550565b61093b806102c36000396000f3fe608060405234801561001057600080fd5b50600436106100ea5760003560e01c8063715018a61161008c5780639dc29fac116100665780639dc29fac146101cd578063a9059cbb146101e0578063dd62ed3e146101f3578063f2fde38b1461022c57600080fd5b8063715018a6146101a25780638da5cb5b146101aa57806395d89b41146101c557600080fd5b806323b872dd116100c857806323b872dd14610142578063313ce5671461015557806340c10f191461016457806370a082311461017957600080fd5b806306fdde03146100ef578063095ea7b31461010d57806318160ddd14610130575b600080fd5b6100f761023f565b6040516101049190610784565b60405180910390f35b61012061011b3660046107ee565b6102d1565b6040519015158152602001610104565b6002545b604051908152602001610104565b610120610150366004610818565b6102eb565b60405160128152602001610104565b6101776101723660046107ee565b61030f565b005b610134610187366004610855565b6001600160a01b031660009081526020819052604090205490565b610177610325565b6005546040516001600160a01b039091168152602001610104565b6100f7610339565b6101776101db3660046107ee565b610348565b6101206101ee3660046107ee565b61035a565b610134610201366004610877565b6001600160a01b03918216600090815260016020908152604080832093909416825291909152205490565b61017761023a366004610855565b610368565b60606003805461024e906108aa565b80601f016020809104026020016040519081016040528092919081815260200182805461027a906108aa565b80156102c75780601f1061029c576101008083540402835291602001916102c7565b820191906000526020600020905b8154815290600101906020018083116102aa57829003601f168201915b5050505050905090565b6000336102df8185856103ab565b60019150505b92915050565b6000336102f98582856103bd565b61030485858561043b565b506001949350505050565b61031761049a565b61032182826104c7565b5050565b61032d61049a565b61033760006104fd565b565b60606004805461024e906108aa565b61035061049a565b610321828261054f565b6000336102df81858561043b565b61037061049a565b6001600160a01b03811661039f57604051631e4fbdf760e01b8152600060048201526024015b60405180910390fd5b6103a8816104fd565b50565b6103b88383836001610585565b505050565b6001600160a01b038381166000908152600160209081526040808320938616835292905220546000198114610435578181101561042657604051637dc7a0d960e11b81526001600160a01b03841660048201526024810182905260448101839052606401610396565b61043584848484036000610585565b50505050565b6001600160a01b03831661046557604051634b637e8f60e11b815260006004820152602401610396565b6001600160a01b03821661048f5760405163ec442f0560e01b815260006004820152602401610396565b6103b883838361065a565b6005546001600160a01b031633146103375760405163118cdaa760e01b8152336004820152602401610396565b6001600160a01b0382166104f15760405163ec442f0560e01b815260006004820152602401610396565b6103216000838361065a565b600580546001600160a01b038381166001600160a01b0319831681179093556040519116919082907f8be0079c531659141344cd1fd0a4f28419497f9722a3daafe3b4186f6b6457e090600090a35050565b6001600160a01b03821661057957604051634b637e8f60e11b815260006004820152602401610396565b6103218260008361065a565b6001600160a01b0384166105af5760405163e602df0560e01b815260006004820152602401610396565b6001600160a01b0383166105d957604051634a1406b160e11b815260006004820152602401610396565b6001600160a01b038085166000908152600160209081526040808320938716835292905220829055801561043557826001600160a01b0316846001600160a01b03167f8c5be1e5ebec7d5bd14f71427d1e84f3dd0314c0f7b2291e5b200ac8c7c3b9258460405161064c91815260200190565b60405180910390a350505050565b6001600160a01b03831661068557806002600082825461067a91906108e4565b909155506106f79050565b6001600160a01b038316600090815260208190526040902054818110156106d85760405163391434e360e21b81526001600160a01b03851660048201526024810182905260448101839052606401610396565b6001600160a01b03841660009081526020819052604090209082900390555b6001600160a01b03821661071357600280548290039055610732565b6001600160a01b03821660009081526020819052604090208054820190555b816001600160a01b0316836001600160a01b03167fddf252ad1be2c89b69c2b068fc378daa952ba7f163c4a11628f55a4df523b3ef8360405161077791815260200190565b60405180910390a3505050565b602081526000825180602084015260005b818110156107b25760208186018101516040868401015201610795565b506000604082850101526040601f19601f83011684010191505092915050565b80356001600160a01b03811681146107e957600080fd5b919050565b6000806040838503121561080157600080fd5b61080a836107d2565b946020939093013593505050565b60008060006060848603121561082d57600080fd5b610836846107d2565b9250610844602085016107d2565b929592945050506040919091013590565b60006020828403121561086757600080fd5b610870826107d2565b9392505050565b6000806040838503121561088a57600080fd5b610893836107d2565b91506108a1602084016107d2565b90509250929050565b600181811c908216806108be57607f821691505b6020821081036108de57634e487b7160e01b600052602260045260246000fd5b50919050565b808201808211156102e557634e487b7160e01b600052601160045260246000fdfea2646970667358221220b125fc2eb189b9872ef22d790aedaf93cbf8a5def81d9c569f2de0c7f45bac4e64736f6c634300081a0033","linkReferences":{}},"methodIdentifiers":{"INITIAL_SHARE_PRICE()":"e7ab1247","SHARE_PRICE_DIVIDER()":"8b0d6977","SHARE_PRICE_MULTIPLIER()":"2325bff9","buyShares(address,uint256)":"6945b123","getBuyPrice(address,uint256)":"4635256e","getSellPrice(address,uint256)":"9ae71781","getSharePrice(address)":"b9c7840b","getSharesBalance(address,address)":"1ef6f4ed","getSharesSupply(address)":"a7b411ed","polVault()":"d36d42c9","sellShares(address,uint256)":"b51d0534","sharePrice(address)":"9b9b9421","sharesBalance(address,address)":"020235ff","sharesSupply(address)":"f9931be0","stakingToken()":"72f702f3"},"id":32}